{
  "_format": "hh-sol-artifact-1",
  "contractName": "RWAToken",
  "sourceName": "contracts/RWAToken.sol",
  "abi": [
    {
      "inputs": [
        {
          "internalType": "string",
          "name": "name",
          "type": "string"
        },
        {
          "internalType": "string",
          "name": "symbol",
          "type": "string"
        }
      ],
      "stateMutability": "nonpayable",
      "type": "constructor"
    },
    {
      "inputs": [
        {
          "internalType": "address",
          "name": "sender",
          "type": "address"
        },
        {
          "internalType": "uint256",
          "name": "tokenId",
          "type": "uint256"
        },
        {
          "internalType": "address",
          "name": "owner",
          "type": "address"
        }
      ],
      "name": "ERC721IncorrectOwner",
      "type": "error"
    },
    {
      "inputs": [
        {
          "internalType": "address",
          "name": "operator",
          "type": "address"
        },
        {
          "internalType": "uint256",
          "name": "tokenId",
          "type": "uint256"
        }
      ],
      "name": "ERC721InsufficientApproval",
      "type": "error"
    },
    {
      "inputs": [
        {
          "internalType": "address",
          "name": "approver",
          "type": "address"
        }
      ],
      "name": "ERC721InvalidApprover",
      "type": "error"
    },
    {
      "inputs": [
        {
          "internalType": "address",
          "name": "operator",
          "type": "address"
        }
      ],
      "name": "ERC721InvalidOperator",
      "type": "error"
    },
    {
      "inputs": [
        {
          "internalType": "address",
          "name": "owner",
          "type": "address"
        }
      ],
      "name": "ERC721InvalidOwner",
      "type": "error"
    },
    {
      "inputs": [
        {
          "internalType": "address",
          "name": "receiver",
          "type": "address"
        }
      ],
      "name": "ERC721InvalidReceiver",
      "type": "error"
    },
    {
      "inputs": [
        {
          "internalType": "address",
          "name": "sender",
          "type": "address"
        }
      ],
      "name": "ERC721InvalidSender",
      "type": "error"
    },
    {
      "inputs": [
        {
          "internalType": "uint256",
          "name": "tokenId",
          "type": "uint256"
        }
      ],
      "name": "ERC721NonexistentToken",
      "type": "error"
    },
    {
      "inputs": [
        {
          "internalType": "address",
          "name": "owner",
          "type": "address"
        }
      ],
      "name": "OwnableInvalidOwner",
      "type": "error"
    },
    {
      "inputs": [
        {
          "internalType": "address",
          "name": "account",
          "type": "address"
        }
      ],
      "name": "OwnableUnauthorizedAccount",
      "type": "error"
    },
    {
      "anonymous": false,
      "inputs": [
        {
          "indexed": true,
          "internalType": "address",
          "name": "owner",
          "type": "address"
        },
        {
          "indexed": true,
          "internalType": "address",
          "name": "approved",
          "type": "address"
        },
        {
          "indexed": true,
          "internalType": "uint256",
          "name": "tokenId",
          "type": "uint256"
        }
      ],
      "name": "Approval",
      "type": "event"
    },
    {
      "anonymous": false,
      "inputs": [
        {
          "indexed": true,
          "internalType": "address",
          "name": "owner",
          "type": "address"
        },
        {
          "indexed": true,
          "internalType": "address",
          "name": "operator",
          "type": "address"
        },
        {
          "indexed": false,
          "internalType": "bool",
          "name": "approved",
          "type": "bool"
        }
      ],
      "name": "ApprovalForAll",
      "type": "event"
    },
    {
      "anonymous": false,
      "inputs": [
        {
          "indexed": false,
          "internalType": "uint256",
          "name": "_fromTokenId",
          "type": "uint256"
        },
        {
          "indexed": false,
          "internalType": "uint256",
          "name": "_toTokenId",
          "type": "uint256"
        }
      ],
      "name": "BatchMetadataUpdate",
      "type": "event"
    },
    {
      "anonymous": false,
      "inputs": [
        {
          "indexed": false,
          "internalType": "uint256",
          "name": "_tokenId",
          "type": "uint256"
        }
      ],
      "name": "MetadataUpdate",
      "type": "event"
    },
    {
      "anonymous": false,
      "inputs": [
        {
          "indexed": true,
          "internalType": "address",
          "name": "previousOwner",
          "type": "address"
        },
        {
          "indexed": true,
          "internalType": "address",
          "name": "newOwner",
          "type": "address"
        }
      ],
      "name": "OwnershipTransferred",
      "type": "event"
    },
    {
      "anonymous": false,
      "inputs": [
        {
          "indexed": true,
          "internalType": "address",
          "name": "from",
          "type": "address"
        },
        {
          "indexed": true,
          "internalType": "address",
          "name": "to",
          "type": "address"
        },
        {
          "indexed": true,
          "internalType": "uint256",
          "name": "tokenId",
          "type": "uint256"
        }
      ],
      "name": "Transfer",
      "type": "event"
    },
    {
      "inputs": [
        {
          "internalType": "address",
          "name": "to",
          "type": "address"
        },
        {
          "internalType": "uint256",
          "name": "tokenId",
          "type": "uint256"
        }
      ],
      "name": "approve",
      "outputs": [],
      "stateMutability": "nonpayable",
      "type": "function"
    },
    {
      "inputs": [
        {
          "internalType": "uint256",
          "name": "",
          "type": "uint256"
        }
      ],
      "name": "assetRegistry",
      "outputs": [
        {
          "internalType": "string",
          "name": "legalDocumentHash",
          "type": "string"
        },
        {
          "internalType": "address",
          "name": "auditor",
          "type": "address"
        },
        {
          "internalType": "uint256",
          "name": "valuation",
          "type": "uint256"
        },
        {
          "internalType": "uint256",
          "name": "auditDate",
          "type": "uint256"
        }
      ],
      "stateMutability": "view",
      "type": "function"
    },
    {
      "inputs": [
        {
          "internalType": "address",
          "name": "owner",
          "type": "address"
        }
      ],
      "name": "balanceOf",
      "outputs": [
        {
          "internalType": "uint256",
          "name": "",
          "type": "uint256"
        }
      ],
      "stateMutability": "view",
      "type": "function"
    },
    {
      "inputs": [
        {
          "internalType": "uint256",
          "name": "tokenId",
          "type": "uint256"
        }
      ],
      "name": "getApproved",
      "outputs": [
        {
          "internalType": "address",
          "name": "",
          "type": "address"
        }
      ],
      "stateMutability": "view",
      "type": "function"
    },
    {
      "inputs": [
        {
          "internalType": "uint256",
          "name": "tokenId",
          "type": "uint256"
        }
      ],
      "name": "getAssetData",
      "outputs": [
        {
          "components": [
            {
              "internalType": "string",
              "name": "legalDocumentHash",
              "type": "string"
            },
            {
              "internalType": "address",
              "name": "auditor",
              "type": "address"
            },
            {
              "internalType": "uint256",
              "name": "valuation",
              "type": "uint256"
            },
            {
              "internalType": "uint256",
              "name": "auditDate",
              "type": "uint256"
            }
          ],
          "internalType": "struct RWAToken.AssetInfo",
          "name": "",
          "type": "tuple"
        }
      ],
      "stateMutability": "view",
      "type": "function"
    },
    {
      "inputs": [
        {
          "internalType": "address",
          "name": "owner",
          "type": "address"
        },
        {
          "internalType": "address",
          "name": "operator",
          "type": "address"
        }
      ],
      "name": "isApprovedForAll",
      "outputs": [
        {
          "internalType": "bool",
          "name": "",
          "type": "bool"
        }
      ],
      "stateMutability": "view",
      "type": "function"
    },
    {
      "inputs": [
        {
          "internalType": "address",
          "name": "to",
          "type": "address"
        },
        {
          "internalType": "string",
          "name": "metadataURI",
          "type": "string"
        },
        {
          "internalType": "string",
          "name": "legalDocHash",
          "type": "string"
        },
        {
          "internalType": "uint256",
          "name": "valuation",
          "type": "uint256"
        }
      ],
      "name": "mintAsset",
      "outputs": [
        {
          "internalType": "uint256",
          "name": "",
          "type": "uint256"
        }
      ],
      "stateMutability": "nonpayable",
      "type": "function"
    },
    {
      "inputs": [],
      "name": "name",
      "outputs": [
        {
          "internalType": "string",
          "name": "",
          "type": "string"
        }
      ],
      "stateMutability": "view",
      "type": "function"
    },
    {
      "inputs": [],
      "name": "owner",
      "outputs": [
        {
          "internalType": "address",
          "name": "",
          "type": "address"
        }
      ],
      "stateMutability": "view",
      "type": "function"
    },
    {
      "inputs": [
        {
          "internalType": "uint256",
          "name": "tokenId",
          "type": "uint256"
        }
      ],
      "name": "ownerOf",
      "outputs": [
        {
          "internalType": "address",
          "name": "",
          "type": "address"
        }
      ],
      "stateMutability": "view",
      "type": "function"
    },
    {
      "inputs": [],
      "name": "renounceOwnership",
      "outputs": [],
      "stateMutability": "nonpayable",
      "type": "function"
    },
    {
      "inputs": [
        {
          "internalType": "address",
          "name": "from",
          "type": "address"
        },
        {
          "internalType": "address",
          "name": "to",
          "type": "address"
        },
        {
          "internalType": "uint256",
          "name": "tokenId",
          "type": "uint256"
        }
      ],
      "name": "safeTransferFrom",
      "outputs": [],
      "stateMutability": "nonpayable",
      "type": "function"
    },
    {
      "inputs": [
        {
          "internalType": "address",
          "name": "from",
          "type": "address"
        },
        {
          "internalType": "address",
          "name": "to",
          "type": "address"
        },
        {
          "internalType": "uint256",
          "name": "tokenId",
          "type": "uint256"
        },
        {
          "internalType": "bytes",
          "name": "data",
          "type": "bytes"
        }
      ],
      "name": "safeTransferFrom",
      "outputs": [],
      "stateMutability": "nonpayable",
      "type": "function"
    },
    {
      "inputs": [
        {
          "internalType": "address",
          "name": "operator",
          "type": "address"
        },
        {
          "internalType": "bool",
          "name": "approved",
          "type": "bool"
        }
      ],
      "name": "setApprovalForAll",
      "outputs": [],
      "stateMutability": "nonpayable",
      "type": "function"
    },
    {
      "inputs": [
        {
          "internalType": "bytes4",
          "name": "interfaceId",
          "type": "bytes4"
        }
      ],
      "name": "supportsInterface",
      "outputs": [
        {
          "internalType": "bool",
          "name": "",
          "type": "bool"
        }
      ],
      "stateMutability": "view",
      "type": "function"
    },
    {
      "inputs": [],
      "name": "symbol",
      "outputs": [
        {
          "internalType": "string",
          "name": "",
          "type": "string"
        }
      ],
      "stateMutability": "view",
      "type": "function"
    },
    {
      "inputs": [
        {
          "internalType": "uint256",
          "name": "tokenId",
          "type": "uint256"
        }
      ],
      "name": "tokenURI",
      "outputs": [
        {
          "internalType": "string",
          "name": "",
          "type": "string"
        }
      ],
      "stateMutability": "view",
      "type": "function"
    },
    {
      "inputs": [
        {
          "internalType": "address",
          "name": "from",
          "type": "address"
        },
        {
          "internalType": "address",
          "name": "to",
          "type": "address"
        },
        {
          "internalType": "uint256",
          "name": "tokenId",
          "type": "uint256"
        }
      ],
      "name": "transferFrom",
      "outputs": [],
      "stateMutability": "nonpayable",
      "type": "function"
    },
    {
      "inputs": [
        {
          "internalType": "address",
          "name": "newOwner",
          "type": "address"
        }
      ],
      "name": "transferOwnership",
      "outputs": [],
      "stateMutability": "nonpayable",
      "type": "function"
    },
    {
      "inputs": [
        {
          "internalType": "uint256",
          "name": "tokenId",
          "type": "uint256"
        }
      ],
      "name": "verifyOwnership",
      "outputs": [
        {
          "internalType": "address",
          "name": "",
          "type": "address"
        }
      ],
      "stateMutability": "view",
      "type": "function"
    }
  ],
  "bytecode": "0x60806040523480156200001157600080fd5b506040516200333938038062003339833981810160405281019062000037919062000348565b33828281600090816200004b919062000618565b5080600190816200005d919062000618565b505050600073ffffffffffffffffffffffffffffffffffffffff168173ffffffffffffffffffffffffffffffffffffffff1603620000d55760006040517f1e4fbdf7000000000000000000000000000000000000000000000000000000008152600401620000cc919062000744565b60405180910390fd5b620000e681620000ef60201b60201c565b50505062000761565b6000600760009054906101000a900473ffffffffffffffffffffffffffffffffffffffff16905081600760006101000a81548173ffffffffffffffffffffffffffffffffffffffff021916908373ffffffffffffffffffffffffffffffffffffffff1602179055508173ffffffffffffffffffffffffffffffffffffffff168173ffffffffffffffffffffffffffffffffffffffff167f8be0079c531659141344cd1fd0a4f28419497f9722a3daafe3b4186f6b6457e060405160405180910390a35050565b6000604051905090565b600080fd5b600080fd5b600080fd5b600080fd5b6000601f19601f8301169050919050565b7f4e487b7100000000000000000000000000000000000000000000000000000000600052604160045260246000fd5b6200021e82620001d3565b810181811067ffffffffffffffff8211171562000240576200023f620001e4565b5b80604052505050565b600062000255620001b5565b905062000263828262000213565b919050565b600067ffffffffffffffff821115620002865762000285620001e4565b5b6200029182620001d3565b9050602081019050919050565b60005b83811015620002be578082015181840152602081019050620002a1565b60008484015250505050565b6000620002e1620002db8462000268565b62000249565b9050828152602081018484840111156200030057620002ff620001ce565b5b6200030d8482856200029e565b509392505050565b600082601f8301126200032d576200032c620001c9565b5b81516200033f848260208601620002ca565b91505092915050565b60008060408385031215620003625762000361620001bf565b5b600083015167ffffffffffffffff811115620003835762000382620001c4565b5b620003918582860162000315565b925050602083015167ffffffffffffffff811115620003b557620003b4620001c4565b5b620003c38582860162000315565b9150509250929050565b600081519050919050565b7f4e487b7100000000000000000000000000000000000000000000000000000000600052602260045260246000fd5b600060028204905060018216806200042057607f821691505b602082108103620004365762000435620003d8565b5b50919050565b60008190508160005260206000209050919050565b60006020601f8301049050919050565b600082821b905092915050565b600060088302620004a07fffffffffffffffffffffffffffffffffffffffffffffffffffffffffffffffff8262000461565b620004ac868362000461565b95508019841693508086168417925050509392505050565b6000819050919050565b6000819050919050565b6000620004f9620004f3620004ed84620004c4565b620004ce565b620004c4565b9050919050565b6000819050919050565b6200051583620004d8565b6200052d620005248262000500565b8484546200046e565b825550505050565b600090565b6200054462000535565b620005518184846200050a565b505050565b5b8181101562000579576200056d6000826200053a565b60018101905062000557565b5050565b601f821115620005c85762000592816200043c565b6200059d8462000451565b81016020851015620005ad578190505b620005c5620005bc8562000451565b83018262000556565b50505b505050565b600082821c905092915050565b6000620005ed60001984600802620005cd565b1980831691505092915050565b6000620006088383620005da565b9150826002028217905092915050565b6200062382620003cd565b67ffffffffffffffff8111156200063f576200063e620001e4565b5b6200064b825462000407565b620006588282856200057d565b600060209050601f8311600181146200069057600084156200067b578287015190505b620006878582620005fa565b865550620006f7565b601f198416620006a0866200043c565b60005b82811015620006ca57848901518255600182019150602085019450602081019050620006a3565b86831015620006ea5784890151620006e6601f891682620005da565b8355505b6001600288020188555050505b505050505050565b600073ffffffffffffffffffffffffffffffffffffffff82169050919050565b60006200072c82620006ff565b9050919050565b6200073e816200071f565b82525050565b60006020820190506200075b600083018462000733565b92915050565b612bc880620007716000396000f3fe608060405234801561001057600080fd5b506004361061012c5760003560e01c80637d1108f5116100ad578063c87b56dd11610071578063c87b56dd14610344578063de611ee514610374578063e985e9c5146103a4578063eab68fd2146103d4578063f2fde38b146104045761012c565b80637d1108f5146102a05780638da5cb5b146102d057806395d89b41146102ee578063a22cb4651461030c578063b88d4fde146103285761012c565b8063321dc188116100f4578063321dc188146101e757806342842e0e1461021a5780636352211e1461023657806370a0823114610266578063715018a6146102965761012c565b806301ffc9a71461013157806306fdde0314610161578063081812fc1461017f578063095ea7b3146101af57806323b872dd146101cb575b600080fd5b61014b60048036038101906101469190611ea4565b610420565b6040516101589190611eec565b60405180910390f35b610169610481565b6040516101769190611f97565b60405180910390f35b61019960048036038101906101949190611fef565b610513565b6040516101a6919061205d565b60405180910390f35b6101c960048036038101906101c491906120a4565b61052f565b005b6101e560048036038101906101e091906120e4565b610545565b005b61020160048036038101906101fc9190611fef565b610647565b6040516102119493929190612146565b60405180910390f35b610234600480360381019061022f91906120e4565b61071f565b005b610250600480360381019061024b9190611fef565b61073f565b60405161025d919061205d565b60405180910390f35b610280600480360381019061027b9190612192565b610751565b60405161028d91906121bf565b60405180910390f35b61029e61080b565b005b6102ba60048036038101906102b59190611fef565b61081f565b6040516102c791906122a5565b60405180910390f35b6102d8610948565b6040516102e5919061205d565b60405180910390f35b6102f6610972565b6040516103039190611f97565b60405180910390f35b610326600480360381019061032191906122f3565b610a04565b005b610342600480360381019061033d9190612468565b610a1a565b005b61035e60048036038101906103599190611fef565b610a37565b60405161036b9190611f97565b60405180910390f35b61038e60048036038101906103899190611fef565b610a49565b60405161039b919061205d565b60405180910390f35b6103be60048036038101906103b991906124eb565b610a5b565b6040516103cb9190611eec565b60405180910390f35b6103ee60048036038101906103e991906125cc565b610aef565b6040516103fb91906121bf565b60405180910390f35b61041e60048036038101906104199190612192565b610bf2565b005b6000634906490660e01b7bffffffffffffffffffffffffffffffffffffffffffffffffffffffff1916827bffffffffffffffffffffffffffffffffffffffffffffffffffffffff1916148061047a575061047982610c78565b5b9050919050565b6060600080546104909061269a565b80601f01602080910402602001604051908101604052809291908181526020018280546104bc9061269a565b80156105095780601f106104de57610100808354040283529160200191610509565b820191906000526020600020905b8154815290600101906020018083116104ec57829003601f168201915b5050505050905090565b600061051e82610d5a565b5061052882610de2565b9050919050565b610541828261053c610e1f565b610e27565b5050565b600073ffffffffffffffffffffffffffffffffffffffff168273ffffffffffffffffffffffffffffffffffffffff16036105b75760006040517f64a0ae920000000000000000000000000000000000000000000000000000000081526004016105ae919061205d565b60405180910390fd5b60006105cb83836105c6610e1f565b610e39565b90508373ffffffffffffffffffffffffffffffffffffffff168173ffffffffffffffffffffffffffffffffffffffff1614610641578382826040517f64283d7b000000000000000000000000000000000000000000000000000000008152600401610638939291906126cb565b60405180910390fd5b50505050565b600a60205280600052604060002060009150905080600001805461066a9061269a565b80601f01602080910402602001604051908101604052809291908181526020018280546106969061269a565b80156106e35780601f106106b8576101008083540402835291602001916106e3565b820191906000526020600020905b8154815290600101906020018083116106c657829003601f168201915b5050505050908060010160009054906101000a900473ffffffffffffffffffffffffffffffffffffffff16908060020154908060030154905084565b61073a83838360405180602001604052806000815250610a1a565b505050565b600061074a82610d5a565b9050919050565b60008073ffffffffffffffffffffffffffffffffffffffff168273ffffffffffffffffffffffffffffffffffffffff16036107c45760006040517f89c62b640000000000000000000000000000000000000000000000000000000081526004016107bb919061205d565b60405180910390fd5b600360008373ffffffffffffffffffffffffffffffffffffffff1673ffffffffffffffffffffffffffffffffffffffff168152602001908152602001600020549050919050565b610813611053565b61081d60006110da565b565b610827611dfa565b600a60008381526020019081526020016000206040518060800160405290816000820180546108559061269a565b80601f01602080910402602001604051908101604052809291908181526020018280546108819061269a565b80156108ce5780601f106108a3576101008083540402835291602001916108ce565b820191906000526020600020905b8154815290600101906020018083116108b157829003601f168201915b505050505081526020016001820160009054906101000a900473ffffffffffffffffffffffffffffffffffffffff1673ffffffffffffffffffffffffffffffffffffffff1673ffffffffffffffffffffffffffffffffffffffff168152602001600282015481526020016003820154815250509050919050565b6000600760009054906101000a900473ffffffffffffffffffffffffffffffffffffffff16905090565b6060600180546109819061269a565b80601f01602080910402602001604051908101604052809291908181526020018280546109ad9061269a565b80156109fa5780601f106109cf576101008083540402835291602001916109fa565b820191906000526020600020905b8154815290600101906020018083116109dd57829003601f168201915b5050505050905090565b610a16610a0f610e1f565b83836111a0565b5050565b610a25848484610545565b610a318484848461130f565b50505050565b6060610a42826114c6565b9050919050565b6000610a548261073f565b9050919050565b6000600560008473ffffffffffffffffffffffffffffffffffffffff1673ffffffffffffffffffffffffffffffffffffffff16815260200190815260200160002060008373ffffffffffffffffffffffffffffffffffffffff1673ffffffffffffffffffffffffffffffffffffffff16815260200190815260200160002060009054906101000a900460ff16905092915050565b6000610af9611053565b600060086000815480929190610b0e90612731565b919050559050610b1e86826115d9565b610b2881866115f7565b60405180608001604052808581526020013373ffffffffffffffffffffffffffffffffffffffff16815260200184815260200142815250600a60008381526020019081526020016000206000820151816000019081610b879190612925565b5060208201518160010160006101000a81548173ffffffffffffffffffffffffffffffffffffffff021916908373ffffffffffffffffffffffffffffffffffffffff160217905550604082015181600201556060820151816003015590505080915050949350505050565b610bfa611053565b600073ffffffffffffffffffffffffffffffffffffffff168173ffffffffffffffffffffffffffffffffffffffff1603610c6c5760006040517f1e4fbdf7000000000000000000000000000000000000000000000000000000008152600401610c63919061205d565b60405180910390fd5b610c75816110da565b50565b60007f80ac58cd000000000000000000000000000000000000000000000000000000007bffffffffffffffffffffffffffffffffffffffffffffffffffffffff1916827bffffffffffffffffffffffffffffffffffffffffffffffffffffffff19161480610d4357507f5b5e139f000000000000000000000000000000000000000000000000000000007bffffffffffffffffffffffffffffffffffffffffffffffffffffffff1916827bffffffffffffffffffffffffffffffffffffffffffffffffffffffff1916145b80610d535750610d5282611653565b5b9050919050565b600080610d66836116bd565b9050600073ffffffffffffffffffffffffffffffffffffffff168173ffffffffffffffffffffffffffffffffffffffff1603610dd957826040517f7e273289000000000000000000000000000000000000000000000000000000008152600401610dd091906121bf565b60405180910390fd5b80915050919050565b60006004600083815260200190815260200160002060009054906101000a900473ffffffffffffffffffffffffffffffffffffffff169050919050565b600033905090565b610e3483838360016116fa565b505050565b600080610e45846116bd565b9050600073ffffffffffffffffffffffffffffffffffffffff168373ffffffffffffffffffffffffffffffffffffffff1614610e8757610e868184866118bf565b5b600073ffffffffffffffffffffffffffffffffffffffff168173ffffffffffffffffffffffffffffffffffffffff1614610f1857610ec96000856000806116fa565b6001600360008373ffffffffffffffffffffffffffffffffffffffff1673ffffffffffffffffffffffffffffffffffffffff168152602001908152602001600020600082825403925050819055505b600073ffffffffffffffffffffffffffffffffffffffff168573ffffffffffffffffffffffffffffffffffffffff1614610f9b576001600360008773ffffffffffffffffffffffffffffffffffffffff1673ffffffffffffffffffffffffffffffffffffffff168152602001908152602001600020600082825401925050819055505b846002600086815260200190815260200160002060006101000a81548173ffffffffffffffffffffffffffffffffffffffff021916908373ffffffffffffffffffffffffffffffffffffffff160217905550838573ffffffffffffffffffffffffffffffffffffffff168273ffffffffffffffffffffffffffffffffffffffff167fddf252ad1be2c89b69c2b068fc378daa952ba7f163c4a11628f55a4df523b3ef60405160405180910390a4809150509392505050565b61105b610e1f565b73ffffffffffffffffffffffffffffffffffffffff16611079610948565b73ffffffffffffffffffffffffffffffffffffffff16146110d85761109c610e1f565b6040517f118cdaa70000000000000000000000000000000000000000000000000000000081526004016110cf919061205d565b60405180910390fd5b565b6000600760009054906101000a900473ffffffffffffffffffffffffffffffffffffffff16905081600760006101000a81548173ffffffffffffffffffffffffffffffffffffffff021916908373ffffffffffffffffffffffffffffffffffffffff1602179055508173ffffffffffffffffffffffffffffffffffffffff168173ffffffffffffffffffffffffffffffffffffffff167f8be0079c531659141344cd1fd0a4f28419497f9722a3daafe3b4186f6b6457e060405160405180910390a35050565b600073ffffffffffffffffffffffffffffffffffffffff168273ffffffffffffffffffffffffffffffffffffffff160361121157816040517f5b08ba18000000000000000000000000000000000000000000000000000000008152600401611208919061205d565b60405180910390fd5b80600560008573ffffffffffffffffffffffffffffffffffffffff1673ffffffffffffffffffffffffffffffffffffffff16815260200190815260200160002060008473ffffffffffffffffffffffffffffffffffffffff1673ffffffffffffffffffffffffffffffffffffffff16815260200190815260200160002060006101000a81548160ff0219169083151502179055508173ffffffffffffffffffffffffffffffffffffffff168373ffffffffffffffffffffffffffffffffffffffff167f17307eab39ab6107e8899845ad3d59bd9653f200f220920489ca2b5937696c31836040516113029190611eec565b60405180910390a3505050565b60008373ffffffffffffffffffffffffffffffffffffffff163b11156114c0578273ffffffffffffffffffffffffffffffffffffffff1663150b7a02611353610e1f565b8685856040518563ffffffff1660e01b81526004016113759493929190612a4c565b6020604051808303816000875af19250505080156113b157506040513d601f19601f820116820180604052508101906113ae9190612aad565b60015b611435573d80600081146113e1576040519150601f19603f3d011682016040523d82523d6000602084013e6113e6565b606091505b50600081510361142d57836040517f64a0ae92000000000000000000000000000000000000000000000000000000008152600401611424919061205d565b60405180910390fd5b805181602001fd5b63150b7a0260e01b7bffffffffffffffffffffffffffffffffffffffffffffffffffffffff1916817bffffffffffffffffffffffffffffffffffffffffffffffffffffffff1916146114be57836040517f64a0ae920000000000000000000000000000000000000000000000000000000081526004016114b5919061205d565b60405180910390fd5b505b50505050565b60606114d182610d5a565b5060006006600084815260200190815260200160002080546114f29061269a565b80601f016020809104026020016040519081016040528092919081815260200182805461151e9061269a565b801561156b5780601f106115405761010080835404028352916020019161156b565b820191906000526020600020905b81548152906001019060200180831161154e57829003601f168201915b50505050509050600061157c611983565b905060008151036115915781925050506115d4565b6000825111156115c65780826040516020016115ae929190612b16565b604051602081830303815290604052925050506115d4565b6115cf8461199a565b925050505b919050565b6115f3828260405180602001604052806000815250611a03565b5050565b806006600084815260200190815260200160002090816116179190612925565b507ff8e1a15aba9398e019f0b49df1a4fde98ee17ae345cb5f6b5e2c27f5033e8ce78260405161164791906121bf565b60405180910390a15050565b60007f01ffc9a7000000000000000000000000000000000000000000000000000000007bffffffffffffffffffffffffffffffffffffffffffffffffffffffff1916827bffffffffffffffffffffffffffffffffffffffffffffffffffffffff1916149050919050565b60006002600083815260200190815260200160002060009054906101000a900473ffffffffffffffffffffffffffffffffffffffff169050919050565b80806117335750600073ffffffffffffffffffffffffffffffffffffffff168273ffffffffffffffffffffffffffffffffffffffff1614155b1561186757600061174384610d5a565b9050600073ffffffffffffffffffffffffffffffffffffffff168373ffffffffffffffffffffffffffffffffffffffff16141580156117ae57508273ffffffffffffffffffffffffffffffffffffffff168173ffffffffffffffffffffffffffffffffffffffff1614155b80156117c157506117bf8184610a5b565b155b1561180357826040517fa9fbf51f0000000000000000000000000000000000000000000000000000000081526004016117fa919061205d565b60405180910390fd5b811561186557838573ffffffffffffffffffffffffffffffffffffffff168273ffffffffffffffffffffffffffffffffffffffff167f8c5be1e5ebec7d5bd14f71427d1e84f3dd0314c0f7b2291e5b200ac8c7c3b92560405160405180910390a45b505b836004600085815260200190815260200160002060006101000a81548173ffffffffffffffffffffffffffffffffffffffff021916908373ffffffffffffffffffffffffffffffffffffffff16021790555050505050565b6118ca838383611a1f565b61197e57600073ffffffffffffffffffffffffffffffffffffffff168373ffffffffffffffffffffffffffffffffffffffff160361193f57806040517f7e27328900000000000000000000000000000000000000000000000000000000815260040161193691906121bf565b60405180910390fd5b81816040517f177e802f000000000000000000000000000000000000000000000000000000008152600401611975929190612b3a565b60405180910390fd5b505050565b606060405180602001604052806000815250905090565b60606119a582610d5a565b5060006119b0611983565b905060008151116119d057604051806020016040528060008152506119fb565b806119da84611ae0565b6040516020016119eb929190612b16565b6040516020818303038152906040525b915050919050565b611a0d8383611bae565b611a1a600084848461130f565b505050565b60008073ffffffffffffffffffffffffffffffffffffffff168373ffffffffffffffffffffffffffffffffffffffff1614158015611ad757508273ffffffffffffffffffffffffffffffffffffffff168473ffffffffffffffffffffffffffffffffffffffff161480611a985750611a978484610a5b565b5b80611ad657508273ffffffffffffffffffffffffffffffffffffffff16611abe83610de2565b73ffffffffffffffffffffffffffffffffffffffff16145b5b90509392505050565b606060006001611aef84611ca7565b01905060008167ffffffffffffffff811115611b0e57611b0d61233d565b5b6040519080825280601f01601f191660200182016040528015611b405781602001600182028036833780820191505090505b509050600082602001820190505b600115611ba3578080600190039150507f3031323334353637383961626364656600000000000000000000000000000000600a86061a8153600a8581611b9757611b96612b63565b5b04945060008503611b4e575b819350505050919050565b600073ffffffffffffffffffffffffffffffffffffffff168273ffffffffffffffffffffffffffffffffffffffff1603611c205760006040517f64a0ae92000000000000000000000000000000000000000000000000000000008152600401611c17919061205d565b60405180910390fd5b6000611c2e83836000610e39565b9050600073ffffffffffffffffffffffffffffffffffffffff168173ffffffffffffffffffffffffffffffffffffffff1614611ca25760006040517f73c6ac6e000000000000000000000000000000000000000000000000000000008152600401611c99919061205d565b60405180910390fd5b505050565b600080600090507a184f03e93ff9f4daa797ed6e38ed64bf6a1f0100000000000000008310611d05577a184f03e93ff9f4daa797ed6e38ed64bf6a1f0100000000000000008381611cfb57611cfa612b63565b5b0492506040810190505b6d04ee2d6d415b85acef81000000008310611d42576d04ee2d6d415b85acef81000000008381611d3857611d37612b63565b5b0492506020810190505b662386f26fc100008310611d7157662386f26fc100008381611d6757611d66612b63565b5b0492506010810190505b6305f5e1008310611d9a576305f5e1008381611d9057611d8f612b63565b5b0492506008810190505b6127108310611dbf576127108381611db557611db4612b63565b5b0492506004810190505b60648310611de25760648381611dd857611dd7612b63565b5b0492506002810190505b600a8310611df1576001810190505b80915050919050565b604051806080016040528060608152602001600073ffffffffffffffffffffffffffffffffffffffff16815260200160008152602001600081525090565b6000604051905090565b600080fd5b600080fd5b60007fffffffff0000000000000000000000000000000000000000000000000000000082169050919050565b611e8181611e4c565b8114611e8c57600080fd5b50565b600081359050611e9e81611e78565b92915050565b600060208284031215611eba57611eb9611e42565b5b6000611ec884828501611e8f565b91505092915050565b60008115159050919050565b611ee681611ed1565b82525050565b6000602082019050611f016000830184611edd565b92915050565b600081519050919050565b600082825260208201905092915050565b60005b83811015611f41578082015181840152602081019050611f26565b60008484015250505050565b6000601f19601f8301169050919050565b6000611f6982611f07565b611f738185611f12565b9350611f83818560208601611f23565b611f8c81611f4d565b840191505092915050565b60006020820190508181036000830152611fb18184611f5e565b905092915050565b6000819050919050565b611fcc81611fb9565b8114611fd757600080fd5b50565b600081359050611fe981611fc3565b92915050565b60006020828403121561200557612004611e42565b5b600061201384828501611fda565b91505092915050565b600073ffffffffffffffffffffffffffffffffffffffff82169050919050565b60006120478261201c565b9050919050565b6120578161203c565b82525050565b6000602082019050612072600083018461204e565b92915050565b6120818161203c565b811461208c57600080fd5b50565b60008135905061209e81612078565b92915050565b600080604083850312156120bb576120ba611e42565b5b60006120c98582860161208f565b92505060206120da85828601611fda565b9150509250929050565b6000806000606084860312156120fd576120fc611e42565b5b600061210b8682870161208f565b935050602061211c8682870161208f565b925050604061212d86828701611fda565b9150509250925092565b61214081611fb9565b82525050565b600060808201905081810360008301526121608187611f5e565b905061216f602083018661204e565b61217c6040830185612137565b6121896060830184612137565b95945050505050565b6000602082840312156121a8576121a7611e42565b5b60006121b68482850161208f565b91505092915050565b60006020820190506121d46000830184612137565b92915050565b600082825260208201905092915050565b60006121f682611f07565b61220081856121da565b9350612210818560208601611f23565b61221981611f4d565b840191505092915050565b61222d8161203c565b82525050565b61223c81611fb9565b82525050565b6000608083016000830151848203600086015261225f82826121eb565b91505060208301516122746020860182612224565b5060408301516122876040860182612233565b50606083015161229a6060860182612233565b508091505092915050565b600060208201905081810360008301526122bf8184612242565b905092915050565b6122d081611ed1565b81146122db57600080fd5b50565b6000813590506122ed816122c7565b92915050565b6000806040838503121561230a57612309611e42565b5b60006123188582860161208f565b9250506020612329858286016122de565b9150509250929050565b600080fd5b600080fd5b7f4e487b7100000000000000000000000000000000000000000000000000000000600052604160045260246000fd5b61237582611f4d565b810181811067ffffffffffffffff821117156123945761239361233d565b5b80604052505050565b60006123a7611e38565b90506123b3828261236c565b919050565b600067ffffffffffffffff8211156123d3576123d261233d565b5b6123dc82611f4d565b9050602081019050919050565b82818337600083830152505050565b600061240b612406846123b8565b61239d565b90508281526020810184848401111561242757612426612338565b5b6124328482856123e9565b509392505050565b600082601f83011261244f5761244e612333565b5b813561245f8482602086016123f8565b91505092915050565b6000806000806080858703121561248257612481611e42565b5b60006124908782880161208f565b94505060206124a18782880161208f565b93505060406124b287828801611fda565b925050606085013567ffffffffffffffff8111156124d3576124d2611e47565b5b6124df8782880161243a565b91505092959194509250565b6000806040838503121561250257612501611e42565b5b60006125108582860161208f565b92505060206125218582860161208f565b9150509250929050565b600067ffffffffffffffff8211156125465761254561233d565b5b61254f82611f4d565b9050602081019050919050565b600061256f61256a8461252b565b61239d565b90508281526020810184848401111561258b5761258a612338565b5b6125968482856123e9565b509392505050565b600082601f8301126125b3576125b2612333565b5b81356125c384826020860161255c565b91505092915050565b600080600080608085870312156125e6576125e5611e42565b5b60006125f48782880161208f565b945050602085013567ffffffffffffffff81111561261557612614611e47565b5b6126218782880161259e565b935050604085013567ffffffffffffffff81111561264257612641611e47565b5b61264e8782880161259e565b925050606061265f87828801611fda565b91505092959194509250565b7f4e487b7100000000000000000000000000000000000000000000000000000000600052602260045260246000fd5b600060028204905060018216806126b257607f821691505b6020821081036126c5576126c461266b565b5b50919050565b60006060820190506126e0600083018661204e565b6126ed6020830185612137565b6126fa604083018461204e565b949350505050565b7f4e487b7100000000000000000000000000000000000000000000000000000000600052601160045260246000fd5b600061273c82611fb9565b91507fffffffffffffffffffffffffffffffffffffffffffffffffffffffffffffffff820361276e5761276d612702565b5b600182019050919050565b60008190508160005260206000209050919050565b60006020601f8301049050919050565b600082821b905092915050565b6000600883026127db7fffffffffffffffffffffffffffffffffffffffffffffffffffffffffffffffff8261279e565b6127e5868361279e565b95508019841693508086168417925050509392505050565b6000819050919050565b600061282261281d61281884611fb9565b6127fd565b611fb9565b9050919050565b6000819050919050565b61283c83612807565b61285061284882612829565b8484546127ab565b825550505050565b600090565b612865612858565b612870818484612833565b505050565b5b818110156128945761288960008261285d565b600181019050612876565b5050565b601f8211156128d9576128aa81612779565b6128b38461278e565b810160208510156128c2578190505b6128d66128ce8561278e565b830182612875565b50505b505050565b600082821c905092915050565b60006128fc600019846008026128de565b1980831691505092915050565b600061291583836128eb565b9150826002028217905092915050565b61292e82611f07565b67ffffffffffffffff8111156129475761294661233d565b5b612951825461269a565b61295c828285612898565b600060209050601f83116001811461298f576000841561297d578287015190505b6129878582612909565b8655506129ef565b601f19841661299d86612779565b60005b828110156129c5578489015182556001820191506020850194506020810190506129a0565b868310156129e257848901516129de601f8916826128eb565b8355505b6001600288020188555050505b505050505050565b600081519050919050565b600082825260208201905092915050565b6000612a1e826129f7565b612a288185612a02565b9350612a38818560208601611f23565b612a4181611f4d565b840191505092915050565b6000608082019050612a61600083018761204e565b612a6e602083018661204e565b612a7b6040830185612137565b8181036060830152612a8d8184612a13565b905095945050505050565b600081519050612aa781611e78565b92915050565b600060208284031215612ac357612ac2611e42565b5b6000612ad184828501612a98565b91505092915050565b600081905092915050565b6000612af082611f07565b612afa8185612ada565b9350612b0a818560208601611f23565b80840191505092915050565b6000612b228285612ae5565b9150612b2e8284612ae5565b91508190509392505050565b6000604082019050612b4f600083018561204e565b612b5c6020830184612137565b9392505050565b7f4e487b7100000000000000000000000000000000000000000000000000000000600052601260045260246000fdfea2646970667358221220718bf7539fc1c5b907a17a8876f17e517d9c869d0b796fbb791a1af5fe1430ad64736f6c63430008140033",
  "linkReferences": {},
  "deployedLinkReferences": {}
}