{
  "_format": "hh-sol-artifact-1",
  "contractName": "RWAMarketplace",
  "sourceName": "contracts/RWAMarketplace.sol",
  "abi": [
    {
      "inputs": [
        {
          "internalType": "address",
          "name": "_tokenAddress",
          "type": "address"
        },
        {
          "internalType": "uint256",
          "name": "_feePercentage",
          "type": "uint256"
        }
      ],
      "stateMutability": "nonpayable",
      "type": "constructor"
    },
    {
      "anonymous": false,
      "inputs": [
        {
          "indexed": false,
          "internalType": "uint256",
          "name": "tokenId",
          "type": "uint256"
        },
        {
          "indexed": false,
          "internalType": "address",
          "name": "seller",
          "type": "address"
        },
        {
          "indexed": false,
          "internalType": "uint256",
          "name": "price",
          "type": "uint256"
        }
      ],
      "name": "AssetListed",
      "type": "event"
    },
    {
      "anonymous": false,
      "inputs": [
        {
          "indexed": false,
          "internalType": "uint256",
          "name": "tokenId",
          "type": "uint256"
        },
        {
          "indexed": false,
          "internalType": "address",
          "name": "buyer",
          "type": "address"
        },
        {
          "indexed": false,
          "internalType": "uint256",
          "name": "price",
          "type": "uint256"
        }
      ],
      "name": "AssetSold",
      "type": "event"
    },
    {
      "inputs": [
        {
          "internalType": "uint256",
          "name": "tokenId",
          "type": "uint256"
        }
      ],
      "name": "buyAsset",
      "outputs": [],
      "stateMutability": "payable",
      "type": "function"
    },
    {
      "inputs": [],
      "name": "feePercentage",
      "outputs": [
        {
          "internalType": "uint256",
          "name": "",
          "type": "uint256"
        }
      ],
      "stateMutability": "view",
      "type": "function"
    },
    {
      "inputs": [
        {
          "internalType": "uint256",
          "name": "tokenId",
          "type": "uint256"
        },
        {
          "internalType": "uint256",
          "name": "price",
          "type": "uint256"
        }
      ],
      "name": "listAsset",
      "outputs": [],
      "stateMutability": "nonpayable",
      "type": "function"
    },
    {
      "inputs": [
        {
          "internalType": "uint256",
          "name": "",
          "type": "uint256"
        }
      ],
      "name": "listings",
      "outputs": [
        {
          "internalType": "address",
          "name": "seller",
          "type": "address"
        },
        {
          "internalType": "uint256",
          "name": "price",
          "type": "uint256"
        },
        {
          "internalType": "bool",
          "name": "isActive",
          "type": "bool"
        }
      ],
      "stateMutability": "view",
      "type": "function"
    },
    {
      "inputs": [],
      "name": "rwaToken",
      "outputs": [
        {
          "internalType": "contract IERC721",
          "name": "",
          "type": "address"
        }
      ],
      "stateMutability": "view",
      "type": "function"
    }
  ],
  "bytecode": "0x60806040523480156200001157600080fd5b5060405162000d7738038062000d7783398181016040528101906200003791906200012b565b816000806101000a81548173ffffffffffffffffffffffffffffffffffffffff021916908373ffffffffffffffffffffffffffffffffffffffff16021790555080600281905550505062000172565b600080fd5b600073ffffffffffffffffffffffffffffffffffffffff82169050919050565b6000620000b8826200008b565b9050919050565b620000ca81620000ab565b8114620000d657600080fd5b50565b600081519050620000ea81620000bf565b92915050565b6000819050919050565b6200010581620000f0565b81146200011157600080fd5b50565b6000815190506200012581620000fa565b92915050565b6000806040838503121562000145576200014462000086565b5b60006200015585828601620000d9565b9250506020620001688582860162000114565b9150509250929050565b610bf580620001826000396000f3fe60806040526004361061004a5760003560e01c80630c5bf3511461004f578063110d35b81461007a5780637bad9a3e14610096578063a001ecdd146100bf578063de74e57b146100ea575b600080fd5b34801561005b57600080fd5b50610064610129565b60405161007191906106d2565b60405180910390f35b610094600480360381019061008f9190610728565b61014d565b005b3480156100a257600080fd5b506100bd60048036038101906100b89190610755565b6103b2565b005b3480156100cb57600080fd5b506100d46105f6565b6040516100e191906107a4565b60405180910390f35b3480156100f657600080fd5b50610111600480360381019061010c9190610728565b6105fc565b604051610120939291906107fb565b60405180910390f35b60008054906101000a900473ffffffffffffffffffffffffffffffffffffffff1681565b60006001600083815260200190815260200160002090508060020160009054906101000a900460ff166101b5576040517f08c379a00000000000000000000000000000000000000000000000000000000081526004016101ac9061088f565b60405180910390fd5b80600101543410156101fc576040517f08c379a00000000000000000000000000000000000000000000000000000000081526004016101f3906108fb565b60405180910390fd5b600060646002548360010154610212919061094a565b61021c91906109bb565b9050600081836001015461023091906109ec565b90508260000160009054906101000a900473ffffffffffffffffffffffffffffffffffffffff1673ffffffffffffffffffffffffffffffffffffffff166108fc829081150290604051600060405180830381858888f1935050505015801561029c573d6000803e3d6000fd5b5060008054906101000a900473ffffffffffffffffffffffffffffffffffffffff1673ffffffffffffffffffffffffffffffffffffffff166342842e0e8460000160009054906101000a900473ffffffffffffffffffffffffffffffffffffffff1633876040518463ffffffff1660e01b815260040161031e93929190610a20565b600060405180830381600087803b15801561033857600080fd5b505af115801561034c573d6000803e3d6000fd5b5050505060008360020160006101000a81548160ff0219169083151502179055507f292a715744610be2d2c003ffa789368466ca91526353f24503687fb495dca869843385600101546040516103a493929190610a57565b60405180910390a150505050565b3373ffffffffffffffffffffffffffffffffffffffff1660008054906101000a900473ffffffffffffffffffffffffffffffffffffffff1673ffffffffffffffffffffffffffffffffffffffff16636352211e846040518263ffffffff1660e01b815260040161042291906107a4565b602060405180830381865afa15801561043f573d6000803e3d6000fd5b505050506040513d601f19601f820116820180604052508101906104639190610aba565b73ffffffffffffffffffffffffffffffffffffffff16146104b9576040517f08c379a00000000000000000000000000000000000000000000000000000000081526004016104b090610b33565b60405180910390fd5b600081116104fc576040517f08c379a00000000000000000000000000000000000000000000000000000000081526004016104f390610b9f565b60405180910390fd5b60405180606001604052803373ffffffffffffffffffffffffffffffffffffffff168152602001828152602001600115158152506001600084815260200190815260200160002060008201518160000160006101000a81548173ffffffffffffffffffffffffffffffffffffffff021916908373ffffffffffffffffffffffffffffffffffffffff1602179055506020820151816001015560408201518160020160006101000a81548160ff0219169083151502179055509050507f476606c547e15093eee9f27111d27bfb5d4a751983dec28c9100eb7bb39b8db18233836040516105ea93929190610a57565b60405180910390a15050565b60025481565b60016020528060005260406000206000915090508060000160009054906101000a900473ffffffffffffffffffffffffffffffffffffffff16908060010154908060020160009054906101000a900460ff16905083565b600073ffffffffffffffffffffffffffffffffffffffff82169050919050565b6000819050919050565b600061069861069361068e84610653565b610673565b610653565b9050919050565b60006106aa8261067d565b9050919050565b60006106bc8261069f565b9050919050565b6106cc816106b1565b82525050565b60006020820190506106e760008301846106c3565b92915050565b600080fd5b6000819050919050565b610705816106f2565b811461071057600080fd5b50565b600081359050610722816106fc565b92915050565b60006020828403121561073e5761073d6106ed565b5b600061074c84828501610713565b91505092915050565b6000806040838503121561076c5761076b6106ed565b5b600061077a85828601610713565b925050602061078b85828601610713565b9150509250929050565b61079e816106f2565b82525050565b60006020820190506107b96000830184610795565b92915050565b60006107ca82610653565b9050919050565b6107da816107bf565b82525050565b60008115159050919050565b6107f5816107e0565b82525050565b600060608201905061081060008301866107d1565b61081d6020830185610795565b61082a60408301846107ec565b949350505050565b600082825260208201905092915050565b7f4e6f7420666f722073616c650000000000000000000000000000000000000000600082015250565b6000610879600c83610832565b915061088482610843565b602082019050919050565b600060208201905081810360008301526108a88161086c565b9050919050565b7f496e73756666696369656e742066756e64730000000000000000000000000000600082015250565b60006108e5601283610832565b91506108f0826108af565b602082019050919050565b60006020820190508181036000830152610914816108d8565b9050919050565b7f4e487b7100000000000000000000000000000000000000000000000000000000600052601160045260246000fd5b6000610955826106f2565b9150610960836106f2565b925082820261096e816106f2565b915082820484148315176109855761098461091b565b5b5092915050565b7f4e487b7100000000000000000000000000000000000000000000000000000000600052601260045260246000fd5b60006109c6826106f2565b91506109d1836106f2565b9250826109e1576109e061098c565b5b828204905092915050565b60006109f7826106f2565b9150610a02836106f2565b9250828203905081811115610a1a57610a1961091b565b5b92915050565b6000606082019050610a3560008301866107d1565b610a4260208301856107d1565b610a4f6040830184610795565b949350505050565b6000606082019050610a6c6000830186610795565b610a7960208301856107d1565b610a866040830184610795565b949350505050565b610a97816107bf565b8114610aa257600080fd5b50565b600081519050610ab481610a8e565b92915050565b600060208284031215610ad057610acf6106ed565b5b6000610ade84828501610aa5565b91505092915050565b7f4e6f74206f776e65720000000000000000000000000000000000000000000000600082015250565b6000610b1d600983610832565b9150610b2882610ae7565b602082019050919050565b60006020820190508181036000830152610b4c81610b10565b9050919050565b7f496e76616c696420707269636500000000000000000000000000000000000000600082015250565b6000610b89600d83610832565b9150610b9482610b53565b602082019050919050565b60006020820190508181036000830152610bb881610b7c565b905091905056fea2646970667358221220a7399b743904d64e48783c037c6c155f8b77b5d6e5ac4271d869fb3d2a34f3b964736f6c63430008140033",
  "linkReferences": {},
  "deployedLinkReferences": {}
}